{
  "contractName": "Aggregator",
  "abi": [
    {
      "inputs": [],
      "stateMutability": "nonpayable",
      "type": "constructor"
    },
    {
      "anonymous": false,
      "inputs": [
        {
          "indexed": false,
          "internalType": "address",
          "name": "sender",
          "type": "address"
        },
        {
          "components": [
            {
              "internalType": "string",
              "name": "make",
              "type": "string"
            },
            {
              "internalType": "string",
              "name": "model",
              "type": "string"
            },
            {
              "internalType": "uint8",
              "name": "batterySize",
              "type": "uint8"
            }
          ],
          "indexed": false,
          "internalType": "struct Aggregator.EvInfo",
          "name": "profile",
          "type": "tuple"
        }
      ],
      "name": "EvProfileRegistered",
      "type": "event"
    },
    {
      "anonymous": false,
      "inputs": [
        {
          "indexed": false,
          "internalType": "address",
          "name": "sender",
          "type": "address"
        },
        {
          "components": [
            {
              "internalType": "uint16",
              "name": "id",
              "type": "uint16"
            },
            {
              "internalType": "uint32",
              "name": "start",
              "type": "uint32"
            },
            {
              "internalType": "uint32",
              "name": "end",
              "type": "uint32"
            },
            {
              "internalType": "uint16",
              "name": "energyAmount",
              "type": "uint16"
            }
          ],
          "indexed": false,
          "internalType": "struct Aggregator.EnergyRequirement",
          "name": "newReq",
          "type": "tuple"
        }
      ],
      "name": "NewEnergyRequirement",
      "type": "event"
    },
    {
      "anonymous": false,
      "inputs": [],
      "name": "NewSchedule",
      "type": "event"
    },
    {
      "inputs": [
        {
          "internalType": "uint256",
          "name": "",
          "type": "uint256"
        }
      ],
      "name": "energyRequirementIdsForNextSchedule",
      "outputs": [
        {
          "internalType": "uint16",
          "name": "",
          "type": "uint16"
        }
      ],
      "stateMutability": "view",
      "type": "function",
      "constant": true
    },
    {
      "inputs": [
        {
          "internalType": "uint16",
          "name": "",
          "type": "uint16"
        }
      ],
      "name": "energyRequirements",
      "outputs": [
        {
          "internalType": "uint16",
          "name": "id",
          "type": "uint16"
        },
        {
          "internalType": "uint32",
          "name": "start",
          "type": "uint32"
        },
        {
          "internalType": "uint32",
          "name": "end",
          "type": "uint32"
        },
        {
          "internalType": "uint16",
          "name": "energyAmount",
          "type": "uint16"
        }
      ],
      "stateMutability": "view",
      "type": "function",
      "constant": true
    },
    {
      "inputs": [
        {
          "internalType": "address",
          "name": "",
          "type": "address"
        }
      ],
      "name": "schedules",
      "outputs": [
        {
          "internalType": "uint16",
          "name": "reqId",
          "type": "uint16"
        },
        {
          "internalType": "uint32",
          "name": "reward",
          "type": "uint32"
        }
      ],
      "stateMutability": "view",
      "type": "function",
      "constant": true
    },
    {
      "inputs": [
        {
          "internalType": "string",
          "name": "make",
          "type": "string"
        },
        {
          "internalType": "string",
          "name": "model",
          "type": "string"
        },
        {
          "internalType": "uint8",
          "name": "batterySize",
          "type": "uint8"
        }
      ],
      "name": "registerProfile",
      "outputs": [],
      "stateMutability": "nonpayable",
      "type": "function"
    },
    {
      "inputs": [],
      "name": "deregisterProfile",
      "outputs": [],
      "stateMutability": "nonpayable",
      "type": "function"
    },
    {
      "inputs": [],
      "name": "getProfile",
      "outputs": [
        {
          "components": [
            {
              "internalType": "string",
              "name": "make",
              "type": "string"
            },
            {
              "internalType": "string",
              "name": "model",
              "type": "string"
            },
            {
              "internalType": "uint8",
              "name": "batterySize",
              "type": "uint8"
            }
          ],
          "internalType": "struct Aggregator.EvInfo",
          "name": "profile",
          "type": "tuple"
        }
      ],
      "stateMutability": "view",
      "type": "function",
      "constant": true
    },
    {
      "inputs": [
        {
          "internalType": "uint32",
          "name": "start",
          "type": "uint32"
        },
        {
          "internalType": "uint32",
          "name": "end",
          "type": "uint32"
        },
        {
          "internalType": "uint16",
          "name": "energyAmount",
          "type": "uint16"
        }
      ],
      "name": "newEnergyRequirement",
      "outputs": [],
      "stateMutability": "nonpayable",
      "type": "function"
    },
    {
      "inputs": [],
      "name": "getMyEnergyRequirements",
      "outputs": [
        {
          "components": [
            {
              "internalType": "uint16",
              "name": "id",
              "type": "uint16"
            },
            {
              "internalType": "uint32",
              "name": "start",
              "type": "uint32"
            },
            {
              "internalType": "uint32",
              "name": "end",
              "type": "uint32"
            },
            {
              "internalType": "uint16",
              "name": "energyAmount",
              "type": "uint16"
            }
          ],
          "internalType": "struct Aggregator.EnergyRequirement[]",
          "name": "",
          "type": "tuple[]"
        }
      ],
      "stateMutability": "view",
      "type": "function",
      "constant": true
    },
    {
      "inputs": [],
      "name": "getEnergyRequirementsForNextSchedule",
      "outputs": [
        {
          "components": [
            {
              "internalType": "uint16",
              "name": "id",
              "type": "uint16"
            },
            {
              "internalType": "uint32",
              "name": "start",
              "type": "uint32"
            },
            {
              "internalType": "uint32",
              "name": "end",
              "type": "uint32"
            },
            {
              "internalType": "uint16",
              "name": "energyAmount",
              "type": "uint16"
            }
          ],
          "internalType": "struct Aggregator.EnergyRequirement[]",
          "name": "",
          "type": "tuple[]"
        }
      ],
      "stateMutability": "view",
      "type": "function",
      "constant": true
    },
    {
      "inputs": [
        {
          "components": [
            {
              "internalType": "uint16",
              "name": "reqId",
              "type": "uint16"
            },
            {
              "internalType": "uint32",
              "name": "reward",
              "type": "uint32"
            },
            {
              "internalType": "uint32[96]",
              "name": "allocatedChargingSlots",
              "type": "uint32[96]"
            }
          ],
          "internalType": "struct Aggregator.Schedule[]",
          "name": "newSchedules",
          "type": "tuple[]"
        }
      ],
      "name": "storeSchedule",
      "outputs": [],
      "stateMutability": "nonpayable",
      "type": "function"
    },
    {
      "inputs": [],
      "name": "retrieveMyCurrentSchedule",
      "outputs": [
        {
          "components": [
            {
              "internalType": "uint16",
              "name": "reqId",
              "type": "uint16"
            },
            {
              "internalType": "uint32",
              "name": "reward",
              "type": "uint32"
            },
            {
              "internalType": "uint32[96]",
              "name": "allocatedChargingSlots",
              "type": "uint32[96]"
            }
          ],
          "internalType": "struct Aggregator.Schedule",
          "name": "schedule",
          "type": "tuple"
        }
      ],
      "stateMutability": "view",
      "type": "function",
      "constant": true
    }
  ],
  "bytecode": "0x608060405234801561001057600080fd5b50336000806101000a81548173ffffffffffffffffffffffffffffffffffffffff021916908373ffffffffffffffffffffffffffffffffffffffff1602179055506000600660006101000a81548161ffff021916908361ffff160217905550611f838061007e6000396000f3fe608060405234801561001057600080fd5b50600436106100a95760003560e01c806380c3780f1161007157806380c3780f1461014357806382717be1146101745780639734cbb214610190578063ba4ba6fb146101ac578063d6afc9b1146101dc578063f7883f72146101fa576100a9565b80630bde1749146100ae57806328b527bf146100cc5780633a2de306146100d6578063547ff155146100f4578063645a5bd314610127575b600080fd5b6100b6610218565b6040516100c3919061147a565b60405180910390f35b6100d46103f6565b005b6100de61046e565b6040516100eb919061157b565b60405180910390f35b61010e600480360381019061010991906115d7565b61057c565b60405161011e9493929190611622565b60405180910390f35b610141600480360381019061013c9190611909565b6105e8565b005b61015d600480360381019061015891906119b0565b61090e565b60405161016b9291906119dd565b60405180910390f35b61018e60048036038101906101899190611a06565b610950565b005b6101aa60048036038101906101a59190611b47565b610c31565b005b6101c660048036038101906101c19190611c08565b610d30565b6040516101d39190611c35565b60405180910390f35b6101e4610d68565b6040516101f19190611d3e565b60405180910390f35b610202610f00565b60405161020f919061147a565b60405180910390f35b60606000600360003373ffffffffffffffffffffffffffffffffffffffff1673ffffffffffffffffffffffffffffffffffffffff16815260200190815260200160002090506000818054905067ffffffffffffffff81111561027d5761027c61167d565b5b6040519080825280602002602001820160405280156102b657816020015b6102a361109d565b81526020019060019003908161029b5790505b50905060005b82805490508161ffff1610156103ed5760026000848361ffff16815481106102e7576102e6611d60565b5b90600052602060002090601091828204019190066002029054906101000a900461ffff1661ffff1661ffff1681526020019081526020016000206040518060800160405290816000820160009054906101000a900461ffff1661ffff1661ffff1681526020016000820160029054906101000a900463ffffffff1663ffffffff1663ffffffff1681526020016000820160069054906101000a900463ffffffff1663ffffffff1663ffffffff16815260200160008201600a9054906101000a900461ffff1661ffff1661ffff1681525050828261ffff16815181106103cf576103ce611d60565b5b602002602001018190525080806103e590611dbe565b9150506102bc565b50809250505090565b600160003373ffffffffffffffffffffffffffffffffffffffff1673ffffffffffffffffffffffffffffffffffffffff1681526020019081526020016000206000808201600061044691906110d9565b60018201600061045691906110d9565b6002820160006101000a81549060ff02191690555050565b610476611119565b600760003373ffffffffffffffffffffffffffffffffffffffff1673ffffffffffffffffffffffffffffffffffffffff1681526020019081526020016000206040518060600160405290816000820160009054906101000a900461ffff1661ffff1661ffff1681526020016000820160029054906101000a900463ffffffff1663ffffffff1663ffffffff1681526020016001820160608060200260405190810160405280929190826060801561056e576020028201916000905b82829054906101000a900463ffffffff1663ffffffff16815260200190600401906020826003010492830192600103820291508084116105315790505b505050505081525050905090565b60026020528060005260406000206000915090508060000160009054906101000a900461ffff16908060000160029054906101000a900463ffffffff16908060000160069054906101000a900463ffffffff169080600001600a9054906101000a900461ffff16905084565b60008054906101000a900473ffffffffffffffffffffffffffffffffffffffff1673ffffffffffffffffffffffffffffffffffffffff163373ffffffffffffffffffffffffffffffffffffffff160361090b5760005b6008805490508110156107205760006008828154811061066157610660611d60565b5b9060005260206000200160009054906101000a900473ffffffffffffffffffffffffffffffffffffffff169050600760008273ffffffffffffffffffffffffffffffffffffffff1673ffffffffffffffffffffffffffffffffffffffff168152602001908152602001600020600080820160006101000a81549061ffff02191690556000820160026101000a81549063ffffffff021916905560018201600061070a919061114a565b505050808061071890611de8565b91505061063e565b506008600061072f9190611164565b60005b81518110156108cf5760006004600084848151811061075457610753611d60565b5b60200260200101516000015161ffff1661ffff16815260200190815260200160002060009054906101000a900473ffffffffffffffffffffffffffffffffffffffff1690508282815181106107ac576107ab611d60565b5b6020026020010151600760008373ffffffffffffffffffffffffffffffffffffffff1673ffffffffffffffffffffffffffffffffffffffff16815260200190815260200160002060008201518160000160006101000a81548161ffff021916908361ffff16021790555060208201518160000160026101000a81548163ffffffff021916908363ffffffff160217905550604082015181600101906060610854929190611185565b509050506008819080600181540180825580915050600190039060005260206000200160009091909190916101000a81548173ffffffffffffffffffffffffffffffffffffffff021916908373ffffffffffffffffffffffffffffffffffffffff1602179055505080806108c790611de8565b915050610732565b50600560006108de9190611228565b7f752a65f01082401b3d361a7148abfb7de4092e720929770ce728a0bfa882037060405160405180910390a15b50565b60076020528060005260406000206000915090508060000160009054906101000a900461ffff16908060000160029054906101000a900463ffffffff16905082565b60006040518060800160405280600660009054906101000a900461ffff1661ffff1681526020018563ffffffff1681526020018463ffffffff1681526020018361ffff1681525090508060026000600660009054906101000a900461ffff1661ffff1661ffff16815260200190815260200160002060008201518160000160006101000a81548161ffff021916908361ffff16021790555060208201518160000160026101000a81548163ffffffff021916908363ffffffff16021790555060408201518160000160066101000a81548163ffffffff021916908363ffffffff160217905550606082015181600001600a6101000a81548161ffff021916908361ffff160217905550905050600360003373ffffffffffffffffffffffffffffffffffffffff1673ffffffffffffffffffffffffffffffffffffffff168152602001908152602001600020600660009054906101000a900461ffff1690806001815401808255809150506001900390600052602060002090601091828204019190066002029091909190916101000a81548161ffff021916908361ffff1602179055503360046000600660009054906101000a900461ffff1661ffff1661ffff16815260200190815260200160002060006101000a81548173ffffffffffffffffffffffffffffffffffffffff021916908373ffffffffffffffffffffffffffffffffffffffff1602179055506005600660009054906101000a900461ffff1690806001815401808255809150506001900390600052602060002090601091828204019190066002029091909190916101000a81548161ffff021916908361ffff1602179055506006600081819054906101000a900461ffff1680929190610bd790611dbe565b91906101000a81548161ffff021916908361ffff160217905550507fc72e0f02d5f902c56ec5a21d8e78c5f14b7953c5dbefcd587060df4772491d9e3382604051610c23929190611e94565b60405180910390a150505050565b600060405180606001604052808581526020018481526020018360ff16815250905080600160003373ffffffffffffffffffffffffffffffffffffffff1673ffffffffffffffffffffffffffffffffffffffff1681526020019081526020016000206000820151816000019080519060200190610caf929190611250565b506020820151816001019080519060200190610ccc929190611250565b5060408201518160020160006101000a81548160ff021916908360ff1602179055509050507f30efd882c176b549371db32655eaa797034f154e17e1ca6e44355b5e6a844b753382604051610d22929190611ebd565b60405180910390a150505050565b60058181548110610d4057600080fd5b9060005260206000209060109182820401919006600202915054906101000a900461ffff1681565b610d706112d6565b600160003373ffffffffffffffffffffffffffffffffffffffff1673ffffffffffffffffffffffffffffffffffffffff168152602001908152602001600020604051806060016040529081600082018054610dca90611f1c565b80601f0160208091040260200160405190810160405280929190818152602001828054610df690611f1c565b8015610e435780601f10610e1857610100808354040283529160200191610e43565b820191906000526020600020905b815481529060010190602001808311610e2657829003601f168201915b50505050508152602001600182018054610e5c90611f1c565b80601f0160208091040260200160405190810160405280929190818152602001828054610e8890611f1c565b8015610ed55780601f10610eaa57610100808354040283529160200191610ed5565b820191906000526020600020905b815481529060010190602001808311610eb857829003601f168201915b505050505081526020016002820160009054906101000a900460ff1660ff1660ff1681525050905090565b6060600060058054905067ffffffffffffffff811115610f2357610f2261167d565b5b604051908082528060200260200182016040528015610f5c57816020015b610f4961109d565b815260200190600190039081610f415790505b50905060005b6005805490508161ffff161015611095576002600060058361ffff1681548110610f8f57610f8e611d60565b5b90600052602060002090601091828204019190066002029054906101000a900461ffff1661ffff1661ffff1681526020019081526020016000206040518060800160405290816000820160009054906101000a900461ffff1661ffff1661ffff1681526020016000820160029054906101000a900463ffffffff1663ffffffff1663ffffffff1681526020016000820160069054906101000a900463ffffffff1663ffffffff1663ffffffff16815260200160008201600a9054906101000a900461ffff1661ffff1661ffff1681525050828261ffff168151811061107757611076611d60565b5b6020026020010181905250808061108d90611dbe565b915050610f62565b508091505090565b6040518060800160405280600061ffff168152602001600063ffffffff168152602001600063ffffffff168152602001600061ffff1681525090565b5080546110e590611f1c565b6000825580601f106110f75750611116565b601f01602090049060005260206000209081019061111591906112fa565b5b50565b6040518060600160405280600061ffff168152602001600063ffffffff168152602001611144611317565b81525090565b5080606060070160089004019061116191906112fa565b50565b508054600082559060005260206000209081019061118291906112fa565b50565b8260606007016008900481019282156112175791602002820160005b838211156111e557835183826101000a81548163ffffffff021916908363ffffffff16021790555092602001926004016020816003010492830192600103026111a1565b80156112155782816101000a81549063ffffffff02191690556004016020816003010492830192600103026111e5565b505b50905061122491906112fa565b5090565b50805460008255600f01601090049060005260206000209081019061124d91906112fa565b50565b82805461125c90611f1c565b90600052602060002090601f01602090048101928261127e57600085556112c5565b82601f1061129757805160ff19168380011785556112c5565b828001600101855582156112c5579182015b828111156112c45782518255916020019190600101906112a9565b5b5090506112d291906112fa565b5090565b60405180606001604052806060815260200160608152602001600060ff1681525090565b5b808211156113135760008160009055506001016112fb565b5090565b60405180610c000160405280606090602082028036833780820191505090505090565b600081519050919050565b600082825260208201905092915050565b6000819050602082019050919050565b600061ffff82169050919050565b61137d81611366565b82525050565b600063ffffffff82169050919050565b61139c81611383565b82525050565b6080820160008201516113b86000850182611374565b5060208201516113cb6020850182611393565b5060408201516113de6040850182611393565b5060608201516113f16060850182611374565b50505050565b600061140383836113a2565b60808301905092915050565b6000602082019050919050565b60006114278261133a565b6114318185611345565b935061143c83611356565b8060005b8381101561146d57815161145488826113f7565b975061145f8361140f565b925050600181019050611440565b5085935050505092915050565b60006020820190508181036000830152611494818461141c565b905092915050565b600060609050919050565b600081905092915050565b6000819050919050565b60006114c88383611393565b60208301905092915050565b6000602082019050919050565b6114ea8161149c565b6114f481846114a7565b92506114ff826114b2565b8060005b8381101561153057815161151787826114bc565b9650611522836114d4565b925050600181019050611503565b505050505050565b610c408201600082015161154f6000850182611374565b5060208201516115626020850182611393565b50604082015161157560408501826114e1565b50505050565b6000610c40820190506115916000830184611538565b92915050565b6000604051905090565b600080fd5b600080fd5b6115b481611366565b81146115bf57600080fd5b50565b6000813590506115d1816115ab565b92915050565b6000602082840312156115ed576115ec6115a1565b5b60006115fb848285016115c2565b91505092915050565b61160d81611366565b82525050565b61161c81611383565b82525050565b60006080820190506116376000830187611604565b6116446020830186611613565b6116516040830185611613565b61165e6060830184611604565b95945050505050565b600080fd5b6000601f19601f8301169050919050565b7f4e487b7100000000000000000000000000000000000000000000000000000000600052604160045260246000fd5b6116b58261166c565b810181811067ffffffffffffffff821117156116d4576116d361167d565b5b80604052505050565b60006116e7611597565b90506116f382826116ac565b919050565b600067ffffffffffffffff8211156117135761171261167d565b5b602082029050602081019050919050565b600080fd5b600080fd5b61173781611383565b811461174257600080fd5b50565b6000813590506117548161172e565b92915050565b600067ffffffffffffffff8211156117755761177461167d565b5b602082029050919050565b600061179361178e8461175a565b6116dd565b905080602084028301858111156117ad576117ac611724565b5b835b818110156117d657806117c28882611745565b8452602084019350506020810190506117af565b5050509392505050565b600082601f8301126117f5576117f4611667565b5b6060611802848285611780565b91505092915050565b6000610c40828403121561182257611821611729565b5b61182c60606116dd565b9050600061183c848285016115c2565b600083015250602061185084828501611745565b6020830152506040611864848285016117e0565b60408301525092915050565b600061188361187e846116f8565b6116dd565b905080838252602082019050610c4084028301858111156118a7576118a6611724565b5b835b818110156118d157806118bc888261180b565b845260208401935050610c40810190506118a9565b5050509392505050565b600082601f8301126118f0576118ef611667565b5b8135611900848260208601611870565b91505092915050565b60006020828403121561191f5761191e6115a1565b5b600082013567ffffffffffffffff81111561193d5761193c6115a6565b5b611949848285016118db565b91505092915050565b600073ffffffffffffffffffffffffffffffffffffffff82169050919050565b600061197d82611952565b9050919050565b61198d81611972565b811461199857600080fd5b50565b6000813590506119aa81611984565b92915050565b6000602082840312156119c6576119c56115a1565b5b60006119d48482850161199b565b91505092915050565b60006040820190506119f26000830185611604565b6119ff6020830184611613565b9392505050565b600080600060608486031215611a1f57611a1e6115a1565b5b6000611a2d86828701611745565b9350506020611a3e86828701611745565b9250506040611a4f868287016115c2565b9150509250925092565b600080fd5b600067ffffffffffffffff821115611a7957611a7861167d565b5b611a828261166c565b9050602081019050919050565b82818337600083830152505050565b6000611ab1611aac84611a5e565b6116dd565b905082815260208101848484011115611acd57611acc611a59565b5b611ad8848285611a8f565b509392505050565b600082601f830112611af557611af4611667565b5b8135611b05848260208601611a9e565b91505092915050565b600060ff82169050919050565b611b2481611b0e565b8114611b2f57600080fd5b50565b600081359050611b4181611b1b565b92915050565b600080600060608486031215611b6057611b5f6115a1565b5b600084013567ffffffffffffffff811115611b7e57611b7d6115a6565b5b611b8a86828701611ae0565b935050602084013567ffffffffffffffff811115611bab57611baa6115a6565b5b611bb786828701611ae0565b9250506040611bc886828701611b32565b9150509250925092565b6000819050919050565b611be581611bd2565b8114611bf057600080fd5b50565b600081359050611c0281611bdc565b92915050565b600060208284031215611c1e57611c1d6115a1565b5b6000611c2c84828501611bf3565b91505092915050565b6000602082019050611c4a6000830184611604565b92915050565b600081519050919050565b600082825260208201905092915050565b60005b83811015611c8a578082015181840152602081019050611c6f565b83811115611c99576000848401525b50505050565b6000611caa82611c50565b611cb48185611c5b565b9350611cc4818560208601611c6c565b611ccd8161166c565b840191505092915050565b611ce181611b0e565b82525050565b60006060830160008301518482036000860152611d048282611c9f565b91505060208301518482036020860152611d1e8282611c9f565b9150506040830151611d336040860182611cd8565b508091505092915050565b60006020820190508181036000830152611d588184611ce7565b905092915050565b7f4e487b7100000000000000000000000000000000000000000000000000000000600052603260045260246000fd5b7f4e487b7100000000000000000000000000000000000000000000000000000000600052601160045260246000fd5b6000611dc982611366565b915061ffff8203611ddd57611ddc611d8f565b5b600182019050919050565b6000611df382611bd2565b91507fffffffffffffffffffffffffffffffffffffffffffffffffffffffffffffffff8203611e2557611e24611d8f565b5b600182019050919050565b611e3981611972565b82525050565b608082016000820151611e556000850182611374565b506020820151611e686020850182611393565b506040820151611e7b6040850182611393565b506060820151611e8e6060850182611374565b50505050565b600060a082019050611ea96000830185611e30565b611eb66020830184611e3f565b9392505050565b6000604082019050611ed26000830185611e30565b8181036020830152611ee48184611ce7565b90509392505050565b7f4e487b7100000000000000000000000000000000000000000000000000000000600052602260045260246000fd5b60006002820490506001821680611f3457607f821691505b602082108103611f4757611f46611eed565b5b5091905056fea26469706673582212203f7d5754b7936cb79410720fbb330065a09eaec2b422e7472926066173f8350664736f6c634300080d0033",
  "immutableReferences": {},
  "source": "// SPDX-License-Identifier : UNLICENSED\npragma solidity ^0.8.0;\npragma experimental ABIEncoderV2;\n\ncontract Aggregator {\n\n    struct EvInfo {\n        string make;\n        string model;\n        uint8 batterySize;\n    }\n\n    struct EnergyRequirement {\n        uint16 id;\n        uint32 start;\n        uint32 end;\n        uint16 energyAmount;\n    }\n\n    struct Schedule {\n        uint16 reqId;\n        uint32 reward;\n        uint32[96] allocatedChargingSlots;\n    }\n\n    address owner;\n    \n    mapping(address => EvInfo) evProfiles;\n\n    mapping(uint16 => EnergyRequirement) public energyRequirements;    \n    mapping(address => uint16[]) userToEnergyRequirementIdsMap;\n    mapping(uint16 => address) energyRequirementIdToUserMap;    \n    uint16[] public energyRequirementIdsForNextSchedule;\n    uint16 energyRequirementSequence;\n\n    mapping(address => Schedule) public schedules;\n    address[] schedulesIndex;\n    \n\n\n    constructor() {\n        owner = msg.sender;\n        energyRequirementSequence = 0;\n    }\n\n\n    modifier onlyOwner() {\n        if(msg.sender != owner) return;\n        _;\n    }\n\n\n    // Manage Electric Vehicle Information\n    event EvProfileRegistered(address sender, EvInfo profile);\n\n    function registerProfile(string memory make, string memory model, uint8 batterySize) external {\n        EvInfo memory newProfile = EvInfo(make, model, batterySize);\n        evProfiles[msg.sender] = newProfile;\n        emit EvProfileRegistered(msg.sender, newProfile);\n    }\n\n    function deregisterProfile() external {\n        delete evProfiles[msg.sender];\n    }\n\n    function getProfile() external view returns (EvInfo memory profile) {\n        return evProfiles[msg.sender];\n    }\n\n\n    // Manage Energy Requirements\n    event NewEnergyRequirement(address sender, EnergyRequirement newReq);\n\n    function newEnergyRequirement(uint32 start, uint32 end, uint16 energyAmount) external {\n        EnergyRequirement memory r = EnergyRequirement(energyRequirementSequence, start, end, energyAmount);\n        energyRequirements[energyRequirementSequence] = r;\n        userToEnergyRequirementIdsMap[msg.sender].push(energyRequirementSequence);\n        energyRequirementIdToUserMap[energyRequirementSequence] = msg.sender;\n        energyRequirementIdsForNextSchedule.push(energyRequirementSequence);\n        energyRequirementSequence++;\n        \n        emit NewEnergyRequirement(msg.sender, r);\n    }\n\n    function getMyEnergyRequirements() external view returns (EnergyRequirement[] memory) {\n        uint16[] storage myIds = userToEnergyRequirementIdsMap[msg.sender];\n        EnergyRequirement[] memory myReqs = new EnergyRequirement[](myIds.length);\n        for (uint16 i = 0; i < myIds.length; i++) {\n            myReqs[i] = energyRequirements[myIds[i]];\n        }\n        return myReqs;\n    }\n\n    // Schedule Computations\n    event NewSchedule();\n\n    function getEnergyRequirementsForNextSchedule() external view returns (EnergyRequirement[] memory) {\n        EnergyRequirement[] memory nextScheduleReqs = new EnergyRequirement[](energyRequirementIdsForNextSchedule.length);\n        for (uint16 i = 0; i < energyRequirementIdsForNextSchedule.length; i++) {\n            nextScheduleReqs[i] = energyRequirements[energyRequirementIdsForNextSchedule[i]];\n        }\n        return nextScheduleReqs;\n    }\n\n    function storeSchedule(Schedule[] memory newSchedules) public onlyOwner {\n        // Empty old schedules\n        for (uint i = 0; i < schedulesIndex.length; i++) {\n            address u = schedulesIndex[i];\n            delete schedules[u];\n        }\n        delete schedulesIndex;\n\n        // Add new schedules\n        for (uint i = 0; i < newSchedules.length; i++) {\n            address user = energyRequirementIdToUserMap[newSchedules[i].reqId];\n            schedules[user] = newSchedules[i];\n            schedulesIndex.push(user);\n        }\n\n        // Reset Energy Requirements for next Schedule\n        delete energyRequirementIdsForNextSchedule;\n\n        emit NewSchedule();\n    }\n\n    // Schedule Retrieval (Frontend)\n    function retrieveMyCurrentSchedule() external view returns (Schedule memory schedule) {\n        return schedules[msg.sender];\n    }\n}\n",
  "sourcePath": "/home/deepak/myproject/contracts/Aggregator.sol",
  "compiler": {
    "name": "solc",
    "version": "0.8.13+commit.abaa5c0e.Emscripten.clang"
  },
  "schemaVersion": "3.4.7",
  "updatedAt": "2022-05-12T13:39:51.477Z",
  "networkType": "ethereum",
  "devdoc": {
    "kind": "dev",
    "methods": {},
    "version": 1
  },
  "userdoc": {
    "kind": "user",
    "methods": {},
    "version": 1
  }
}